:100000000C942A000C9447000C9447000C94470071
:100010000C9447000C9447000C9447000C94470044
:100020000C9447000C9447000C9447000C94470034
:100030000C9447000C9447000C9447000C94470024
:100040000C9447000C9447000C9447000C94470014
:100050000C94470011241FBECFE5D8E0DEBFCDBF12
:1000600010E0A0E6B0E0E8EDFCE002C005900D92E3
:10007000AC3BB107D9F720E0ACEBB0E001C01D927A
:10008000A83CB207E1F70E94AA020C946A060C94FD
:100090000000672B09F09FC0009711F4D8980895CD
:1000A0008130910511F4D99808958230910511F4A9
:1000B000DA9808958330910511F4DB98089584301F
:1000C000910511F4DC9808958530910511F4DD98BF
:1000D00008958630910511F4DE98089587309105D2
:1000E00011F4DF9808958A30910511F4C0980895AD
:1000F0008B30910511F4C19808958C30910511F45D
:10010000C29808958D30910511F4C39808958E30EA
:10011000910511F4C49808958F30910511F4C59894
:1001200008958031910511F4C698089581319105A3
:1001300011F4C79808958431910511F4A898089591
:100140008531910511F4A99808958631910511F42E
:10015000AA9808958731910511F4AB9808958831D4
:10016000910511F4AC9808958931910511F4AD9879
:1001700008958A31910511F4AE9808958B31910557
:1001800011F4AF9808958E31910511F49098089567
:100190008F31910511F4919808958032910511F4F1
:1001A000929808958132910511F4939808958232BE
:1001B000910511F4949808958332910511F495985E
:1001C00008958432910511F496980895859709F061
:1001D0009FC097980895009711F4D89A0895813098
:1001E000910511F4D99A08958230910511F4DA9AA3
:1001F00008958330910511F4DB9A089584309105B8
:1002000011F4DC9A08958530910511F4DD9A089572
:100210008630910511F4DE9A08958730910511F426
:10022000DF9A08958A30910511F4C09A08958B30B1
:10023000910511F4C19A08958C30910511F4C29A78
:1002400008958D30910511F4C39A08958E3091056B
:1002500011F4C49A08958F30910511F4C59A089548
:100260008031910511F4C69A08958131910511F4F8
:10027000C79A08958431910511F4A89A089585319B
:10028000910511F4A99A08958631910511F4AA9A5D
:1002900008958731910511F4AB9A0895883191053D
:1002A00011F4AC9A08958931910511F4AD9A08952D
:1002B0008A31910511F4AE9A08958B31910511F4AC
:1002C000AF9A08958E31910511F4909A08958F3167
:1002D000910511F4919A08958032910511F4929A42
:1002E00008958132910511F4939A0895823291050F
:1002F00011F4949A08958332910511F4959A089512
:100300008432910511F4969A0895859709F4979A85
:100310000895CF93C82F80FF07C061E070E08EE0A2
:1003200090E00E94490006C060E070E08EE090E03E
:100330000E944900C1FF07C061E070E08FE090E0DB
:100340000E94490006C060E070E08FE090E00E94EB
:100350004900C2FF07C061E070E080E190E00E94C8
:10036000490006C060E070E080E190E00E94490032
:10037000C3FF07C061E070E081E190E00E944900A6
:1003800006C060E070E081E190E00E944900CF91FA
:100390000895CF93C82F60E070E080E290E00E9463
:1003A00049008C2F0E94890161E070E082E290E0B8
:1003B0000E9449008FEC97E00197F1F700C0000020
:1003C00060E070E082E290E00E9449008FEC97E0EC
:1003D0000197F1F700C00000CF91089580E00E94DE
:1003E000C90181E00E94C9010895CF93C62F8130D1
:1003F00059F480E8860F82958F700E94C9018C2F76
:100400008F700E94C9010CC0823051F480EC860FBD
:1004100082958F700E94C9018C2F8F700E94C90134
:10042000CF91089580E00E9489018FE39CE90197B4
:10043000F1F700C0000083E00E94C9018FE097E25D
:100440000197F1F700C0000083E00E94C9018FEE20
:1004500095E50197F1F700C0000083E00E94C90113
:1004600082E00E94C90182E00E94C90188E00E94E6
:10047000C90180E00E94C9018CE00E94C90180E0AE
:100480000E94C90186E00E94C9010895CF93C82F38
:1004900061E070E080E290E00E9449008C2F82953C
:1004A0008F700E94890161E070E082E290E00E941A
:1004B00049008FEC97E00197F1F700C0000060E081
:1004C00070E082E290E00E9449008FEC97E0019793
:1004D000F1F700C000008C2F8F700E94890161E04D
:1004E00070E082E290E00E9449008FEC97E0019773
:1004F000F1F700C0000060E070E082E290E00E944E
:1005000049008FEC97E00197F1F700C00000CF9110
:100510000895CF93DF93EC018881882331F02196F1
:100520000E94460289918111FBCFDF91CF910895FE
:100530001ABA80E687B980E886B90895805A87B9E3
:10054000369A3699FECF65B170E080E090E00E9467
:10055000080508958FEF81BB87BB84BB0E9498027A
:100560000E94120261E081E00E94F50180E690E0C5
:100570000E94890261E082E00E94F5018DE690E030
:100580000E9489022FEF89E698E121508040904037
:10059000E1F700C000000E94EE0161E081E00E94EE
:1005A000F5018EE790E00E94890261E082E00E94FE
:1005B000F50188E890E00E9489022FEF89E698E132
:1005C000215080409040E1F700C000000E94EE0101
:1005D00011E1D2E280E090E00E949E0220E030E053
:1005E00044E852E40E94EC0320E030E04CE152E4A5
:1005F0000E945E0420E030E044E353E40E94BD0525
:1006000020E030E044EB52E40E94EC036093C00031
:100610007093C1008093C2009093C3000E94D004E5
:10062000DC01CB014AE050E060E970E00E942A065C
:1006300061E081E00E94F50186E990E00E94890274
:1006400061E082E00E94F50180E990E00E94890269
:1006500081E090E00E949E0220E030E046E852E413
:100660000E94EC0320E030E048E152E40E945E0486
:1006700020E030E044E353E40E94BD0520E030E098
:1006800044EB52E40E94EC036093C4007093C500F5
:100690008093C6009093C7000E94D004DC01CB0178
:1006A0004AE050E060E970E00E942A0668E081E0DC
:1006B0000E94F50189E990E00E94890268E082E0E9
:1006C0000E94F50180E990E00E948902C2B315BA48
:1006D00012BAC090C400D090C500E090C600F0905F
:1006E000C70020E030E040EA51ECC701B6010E94AB
:1006F000590488235CF4D5BB959A6AE081E00E9496
:10070000F5018CE990E00E94890259C020E030E0B8
:1007100040EA51E4C701B6010E94B80518165CF41E
:10072000969A15BB6AE081E00E94F50184EA90E0A8
:100730000E94890244C0C090C000D090C100E090E7
:10074000C200F090C30020E030E040EA51E4C7016D
:10075000B6010E94B805181654F4959A63E081E03A
:100760000E94F5018CEA90E00E94890228C020E0F6
:1007700030E040EA51ECC701B6010E9459048823D9
:100780005CF482E085BB63E081E00E94F50182EBCE
:1007900090E00E94890213C015BA82B382BB63E065
:1007A00081E00E94F50187EB90E00E9489026AE0F7
:1007B00081E00E94F50187EB90E00E948902C2BBB4
:1007C0002FEF84E39CE0215080409040E1F700C08F
:1007D00000000E94EE01FECE5058BB27AA270E94BF
:1007E00004040C947E050E94700538F00E94770581
:1007F00020F039F49F3F19F426F40C946D050EF4A3
:10080000E095E7FB0C946705E92F0E948F0558F3EC
:10081000BA17620773078407950720F079F4A6F5E5
:100820000C94B1050EF4E0950B2EBA2FA02D0B0100
:10083000B90190010C01CA01A0011124FF27591B25
:1008400099F0593F50F4503E68F11A16F040A22F2B
:10085000232F342F4427585FF3CF4695379527959C
:10086000A795F0405395C9F77EF41F16BA0B620B9B
:10087000730B840BBAF09150A1F0FF0FBB1F661FE2
:10088000771F881FC2F70EC0BA0F621F731F841F25
:1008900048F4879577956795B795F7959E3F08F04B
:1008A000B0CF9395880F08F09927EE0F979587950D
:1008B00008950E94430508F481E008950E9472049F
:1008C0000C947E050E94770558F00E94700540F058
:1008D00029F45F3F29F00C94670551110C94B2057F
:1008E0000C946D050E948F0568F39923B1F355238D
:1008F00091F3951B550BBB27AA2762177307840733
:1009000038F09F5F5F4F220F331F441FAA1FA9F3C8
:1009100035D00E2E3AF0E0E832D091505040E695B6
:10092000001CCAF72BD0FE2F29D0660F771F881F17
:10093000BB1F261737074807AB07B0E809F0BB0B0A
:10094000802DBF01FF2793585F4F3AF09E3F51051E
:1009500078F00C9467050C94B2055F3FE4F3983E81
:10096000D4F3869577956795B795F7959F5FC9F707
:10097000880F911D9695879597F90895E1E0660F88
:10098000771F881FBB1F621773078407BA0720F001
:10099000621B730B840BBA0BEE1F88F7E09508956A
:1009A0000E94D7046894B1110C94B20508950E9476
:1009B000970588F09F5798F0B92F9927B751B0F055
:1009C000E1F0660F771F881F991F1AF0BA95C9F7D3
:1009D00014C0B13091F00E94B105B1E008950C94BB
:1009E000B105672F782F8827B85F39F0B93FCCF36E
:1009F000869577956795B395D9F73EF49095809550
:100A0000709561957F4F8F4F9F4F0895E89409C06F
:100A100097FB3EF490958095709561957F4F8F4F31
:100A20009F4F9923A9F0F92F96E9BB279395F69547
:100A3000879577956795B795F111F8CFFAF4BB0FC5
:100A400011F460FF1BC06F5F7F4F8F4F9F4F16C029
:100A5000882311F096E911C0772321F09EE8872FB3
:100A6000762F05C0662371F096E8862F70E060E06F
:100A70002AF09A95660F771F881FDAF7880F9695E8
:100A8000879597F90895990F0008550FAA0BE0E88C
:100A9000FEEF16161706E807F907C0F01216130640
:100AA000E407F50798F0621B730B840B950B39F480
:100AB0000A2661F0232B242B252B21F408950A26E6
:100AC00009F4A140A6958FEF811D811D089597F926
:100AD0009F6780E870E060E008959FEF80EC0895E4
:100AE00000240A941616170618060906089500240D
:100AF0000A9412161306140605060895092E039487
:100B0000000C11F4882352F0BB0F40F4BF2B11F4FA
:100B100060FF04C06F5F7F4F8F4F9F4F089557FD59
:100B20009058440F551F59F05F3F71F04795880F5B
:100B300097FB991F61F09F3F79F0879508951216F2
:100B400013061406551FF2CF4695F1DF08C016169E
:100B500017061806991FF1CF86957105610508944F
:100B60000895E894BB2766277727CB0197F9089566
:100B70000E94430508F48FEF08950E94D0050C945D
:100B80007E050E94700538F00E94770520F09523BD
:100B900011F00C9467050C946D0511240C94B205AA
:100BA0000E948F0570F3959FC1F3950F50E0551F7C
:100BB000629FF001729FBB27F00DB11D639FAA27B2
:100BC000F00DB11DAA1F649F6627B00DA11D661F01
:100BD000829F2227B00DA11D621F739FB00DA11D22
:100BE000621F839FA00D611D221F749F3327A00DDC
:100BF000611D231F849F600D211D822F762F6A2F78
:100C000011249F5750409AF0F1F088234AF0EE0FDC
:100C1000FF1FBB1F661F771F881F91505040A9F709
:100C20009E3F510580F00C9467050C94B2055F3F20
:100C3000E4F3983ED4F3869577956795B795F79545
:100C4000E7959F5FC1F7FE2B880F911D96958795BD
:100C500097F908954532510520F4423010F00C9474
:100C60003506FB011082CB010895BB274A3031F4D1
:100C7000992322F4BDE2909581959F4F0C944106F3
:100C8000BB27FB015527AA27880F991FAA1FA41766
:100C900010F0A41B83955051B9F7A05DAA3308F05A
:100CA000A95DA193009779F7B111B1931192CB018E
:100CB0000C945A06DC01FC01672F71917723E1F750
:100CC000329704C07C916D9370836291AE17BF0719
:080CD000C8F30895F894FFCF6A
:100CD80048616E64204765737475726500436F6E72
:100CE80074726F6C6C656420526F626F7400427925
:100CF8002047726F75702000353520262035360064
:100D0800303030303000783A00793A00466F7277E8
:100D1800617264005265766572736500526967682E
:0C0D280074004C6566740053746F70001A
:00000001FF
